:020000040000FA
:10000000000300200D030000AD0E000017030000E8
:10001000190300001B0300001D0300000000000086
:100020000000000000000000000000001F030000AE
:10003000210300000000000023030000B10E0000B7
:10004000F104000005050000190500002D05000061
:1000500041050000310300003303000035030000B8
:1000600037030000390300003B0300003D0300009C
:100070003F0300004103000043030000450300006C
:100080004703000049030000B50F00003D0F0000CA
:100090004F030000510F000053030000650F0000E4
:1000A00057030000590300005B0300005D030000DC
:1000B0005F030000610300005505000065030000B8
:1000C00067030000690300006B030000790F000064
:1000D0006F0300007103000073030000750300004C
:1000E0007703000079030000000000007B0300009C
:1000F0007D0300007F0300008103000083030000F4
:100100008503000087030000890300008B030000C3
:1001100000000000000000008D0300008F030000BD
:100120009103000093030000950300009703000073
:10013000990300009B0300009D0300009F03000043
:1001400000000000000000000000000000000000AF
:10015000A1030000A30300008D0F0000A70300000F
:10016000000000000000000000000000000000008F
:10017000000000000000000000000000000000007F
:10018000000000000000000000000000000000006F
:10019000000000000000000000000000000000005F
:1001A000000000000000000000000000000000004F
:1001B000A10F0000AB030000AD030000AF0300007F
:1001C000B1030000B3030000B5030000B703000053
:1001D000B9030000BB030000BD030000BF03000023
:1001E000C1030000C3030000C503000000000000BD
:1001F00000000000C7030000C9030000CB0300009B
:10020000CD030000CF03000000000000000000004C
:10021000D1030000D3030000D5030000D703000082
:10022000D9030000DB030000DD030000DF03000052
:10023000E1030000E3030000E5030000E703000022
:10024000E9030000EB030000ED030000EF030000F2
:10025000F1030000F3030000F5030000F7030000C2
:10026000F9030000FB030000FD03000000F002F8AA
:1002700000F03CF80AA090E8000C82448344AAF104
:100280000107DA4501D100F031F8AFF2090EBAE802
:100290000F0013F0010F18BFFB1A43F001031847BA
:1002A000A80E0000C80E0000103A24BF78C878C11C
:1002B000FAD8520724BF30C830C144BF04680C606C
:1002C000704700000023002400250026103A28BFB4
:1002D00078C1FBD8520728BF30C148BF0B607047B8
:1002E0001FB500F02BFF1FBD10B510BD00F09BF82F
:1002F0001146FFF7F5FF00F078FE00F0B9F803B4FF
:10030000FFF7F2FF03BC00F0C1F800003F48804750
:100310003F480047FEE7FEE7FEE7FEE7FEE7FEE7B1
:10032000FEE7FEE7FEE7FEE7FEE7FEE7FEE7FEE7A5
:10033000FEE7FEE7FEE7FEE7FEE7FEE7FEE7FEE795
:10034000FEE7FEE7FEE7FEE7FEE7FEE7FEE7FEE785
:10035000FEE7FEE7FEE7FEE7FEE7FEE7FEE7FEE775
:10036000FEE7FEE7FEE7FEE7FEE7FEE7FEE7FEE765
:10037000FEE7FEE7FEE7FEE7FEE7FEE7FEE7FEE755
:10038000FEE7FEE7FEE7FEE7FEE7FEE7FEE7FEE745
:10039000FEE7FEE7FEE7FEE7FEE7FEE7FEE7FEE735
:1003A000FEE7FEE7FEE7FEE7FEE7FEE7FEE7FEE725
:1003B000FEE7FEE7FEE7FEE7FEE7FEE7FEE7FEE715
:1003C000FEE7FEE7FEE7FEE7FEE7FEE7FEE7FEE705
:1003D000FEE7FEE7FEE7FEE7FEE7FEE7FEE7FEE7F5
:1003E000FEE7FEE7FEE7FEE7FEE7FEE7FEE7FEE7E5
:1003F000FEE7FEE7FEE7FEE7FEE7FEE7FEE70000BA
:1004000004480549034A054B70470000C50E00002B
:100410006D02000000010020000300200001002008
:10042000704770477047754600F02CF8AE460500DF
:100430006946534620F00700854618B020B5FFF7FF
:10044000DFFFBDE820404FF000064FF000074FF0FF
:1004500000084FF0000B21F00701AC46ACE8C009E2
:10046000ACE8C009ACE8C009ACE8C0098D467047EB
:1004700010B50446AFF300802046BDE81040FFF7FA
:100480003EBF0000004870479C0000200149182032
:10049000ABBEFEE726000200704710B5292000F031
:1004A0005DFA10BD10B5292000F040FA2A2000F0B6
:1004B0003DFA2B2000F03AFA2C2000F01FFA06201B
:1004C000084908700120487088700872C8704FF49D
:1004D0007A7048600448C860084600F045F800F0AB
:1004E000D9F910BD680000209B040000704700008F
:1004F00010B50348006810B101490868804710BD75
:100500008400002010B50348406810B101494868D4
:10051000804710BD8400002010B50348806810B1EA
:1005200001498868804710BD8400002010B5034849
:10053000C06810B10149C868804710BD8400002020
:1005400010B50348006910B101490869804710BD22
:100550008400002010B50348406910B10149486982
:10056000804710BD8400002070B504460125002C92
:1005700072D020780C2870DA60780228FBDA207AB2
:100580000228F8DAE0780328F5DAE068002864D079
:10059000A0780228EFDA60680028F8D02078B24905
:1005A000087000212078082804DA2078AF4A02EB8E
:1005B000003004E020780838AD4A02EB0030C1601A
:1005C000A07800B3A07801281DD12078082804DA8B
:1005D0002078A64901EB003004E020780838A449CF
:1005E00001EB0030C06840F002012078082804DAEE
:1005F00020789E4A02EB003004E0207808389C4ABC
:1006000002EB0030C16000212078082804DA20784D
:10061000964A02EB003004E020780838944A02EB56
:1006200000300160607800BB2078082804DA207868
:100630008E4901EB003004E0207808388C4901EB4A
:100640000030406840F001012078082806DA207860
:10065000864A02EB003006E002E1FFE0207808382D
:10066000834A02EB0030416020E0607801281DD110
:100670002078082804DA20787C4901EB003004E077
:10068000207808387A4901EB0030406840F00201D8
:100690002078082804DA2078744A02EB003004E05D
:1006A00020780838724A02EB003041602078082830
:1006B00004DA20786D4901EB003004E02078083836
:1006C0006B4901EB0030406840F0100120780828A9
:1006D00004DA2078654A02EB003004E0207808381C
:1006E000634A02EB00304160E07818B900206149AC
:1006F00008700AE0E078012802D15E49087004E041
:10070000E078022801D15B4908702078616800F028
:1007100073FC207A01284ED12078082804DA20784A
:10072000524901EB003004E020780838504901EBD1
:100730000030806940F001012078082804DA207830
:100740004A4A02EB003004E020780838484A02EBBD
:100750000030816144480078062803D1132000F05E
:1007600033FC26E040480078072803D1152000F02C
:100770002BFC1EE03C480078082803D1172000F02D
:1007800023FC16E038480078092803D1232000F024
:100790001BFC0EE0344800780A2803D1462000F004
:1007A00013FC06E0304800780B2802D15C2000F0F2
:1007B0000BFC62B61FE0207AE8B92078082804DA3A
:1007C00020782A4901EB003004E0207808382849D5
:1007D00001EB0030406A40F001012078082804DA7B
:1007E0002078224A02EB003004E020780838204AC2
:1007F00002EB003041621C480078062803D11E49F4
:10080000E068086026E018480078072803D11B49F3
:10081000E06808601EE014480078082803D11849F1
:10082000E068086016E010480078092803D11549EF
:10083000E06808600EE00C4800780A2803D11249ED
:10084000E068086006E0084800780B2802D10F49EC
:10085000E068086001200E49086002E0002500E021
:100860000025284670BD0000310000200000034034
:1008700000C0044030000020400000204400002060
:10088000480000204C0000205000002054000020B0
:1008900034000020012015490968012924D1144998
:1008A0000978082905DA12490978124A02EB013160
:1008B00005E00F49097808390F4A02EB0131C96890
:1008C00041F001020A490978082905DA084909783E
:1008D000084B03EB013105E0054909780839064B5F
:1008E00003EB0131CA6000E00020704734000020B3
:1008F000310000200000034000C0044070B50446F1
:100900000125302C0CDA0848047000200649487094
:1009100088700120C870084600F02EF8054000E0FD
:100920000025284670BD00006000002070B5044618
:100930000125302C0DDA0848047000200649487063
:10094000012088700320C870084600F015F80540A3
:1009500000E00025284670BD5C00002070B504460C
:100960000125302C05DA0221204600F021FA05404D
:1009700000E00025284670BD70B503460124002B19
:1009800076D01878302874DA58780328FBDA98780B
:100990000228F8DAD878042802DBD8780328F2DABB
:1009A0001878C51700EB5575E9101878C51700EBD6
:1009B0005575ED10A0EBC505EAB2F74800680125B2
:1009C0008D402843F44D2860587820B101286FD01D
:1009D00002286ED1A3E1987810B101286AD1A3E072
:1009E000042904DA4FF0402000EB013003E0081F37
:1009F000EA4D05EB0030D0F80054012090408543CB
:100A0000042904DA4FF0402000EB013003E0081F16
:100A1000E24E06EB0030C0F80054D87820B101282F
:100A20003FD002287DD15DE0042904DA4FF0402058
:100A300000EB013003E0081FD84D05EB0030D0F883
:100A40001055012090408543042904DA4FF04020DE
:100A500000EB013003E0081FD04E06EB0030C0F879
:100A60001055042906DA4FF0402000EB013005E074
:100A70009AE197E1081FC94D05EB0030D0F81455F5
:100A8000012090408543042904DA4FF0402000EB18
:100A9000013003E0081FC14E06EB0030C0F81455CA
:100AA00040E0042907DA4FF0402000EB013006E077
:100AB00053E175E1DAE0081FB84D05EB0030D0F8DE
:100AC0001055012090400543042904DA4FF04020DE
:100AD00000EB013003E0081FB04E06EB0030C0F819
:100AE00010551FE0042904DA4FF0402000EB0130DC
:100AF00003E0081FA94D05EB0030D0F81455012084
:100B000090400543042905DA4FF0402000EB013006
:100B100004E006E0081FA14E06EB0030C0F81455B3
:100B200000E000BF00BFA2E0042904DA4FF040203B
:100B300000EB013003E0081F984D05EB0030D0F8C2
:100B40000054012090400543042904DA4FF040206E
:100B500000EB013003E0081F904E06EB0030C0F8B8
:100B60000054D87830B1012822D002283ED0032882
:100B700079D159E0042904DA4FF0402000EB01302C
:100B800003E0081F854D05EB0030D0F80C5501201F
:100B900090400543042904DA4FF0402000EB013077
:100BA00003E0081F7D4E06EB0030C0F80C555BE0FB
:100BB000042904DA4FF0402000EB013003E0081F65
:100BC000764D05EB0030D0F80055012090400543EC
:100BD000042904DA4FF0402000EB013003E0081F45
:100BE0006E4E06EB0030C0F800553DE0042904DAF3
:100BF0004FF0402000EB013003E0081F674D05EB8C
:100C00000030D0F80455012090400543042904DA4F
:100C10004FF0402000EB013003E0081F5F4E06EB71
:100C20000030C0F804551FE0042904DA4FF04020DA
:100C300000EB013003E0081F584D05EB0030D0F801
:100C40000855012090400543042905DA4FF0402063
:100C500000EB013004E006E0081F504E06EB0030C8
:100C6000C0F8085500E000BF00BF00E000BF00BFB3
:100C7000042904DA4FF0402000EB013003E0081FA4
:100C8000464D05EB0030D0F82054012090408543BC
:100C9000042904DA4FF0402000EB013003E0081F84
:100CA0003E4E06EB0030C0F82054042904DA4FF021
:100CB000402000EB013003E0081F384D05EB003009
:100CC000D0F8FC0320F0FF05042904DA4FF040209F
:100CD00000EB013003E0081F304E06EB0030C0F897
:100CE000FC53042904DA4FF0402000EB013003E00C
:100CF000081F2A4D05EB0030D0F81C55012090400C
:100D00000543042904DA4FF0402000EB013003E0F2
:100D1000081F224E06EB0030C0F81C5541E00429A4
:100D200004DA4FF0402000EB013003E0081F1B4DB8
:100D300005EB0030D0F81C55012090408543042974
:100D400004DA4FF0402000EB013003E0081F134E9F
:100D500006EB0030C0F81C5523E0042904DA4FF0FC
:100D6000402000EB013003E0081F0C4D05EB003084
:100D7000D0F82054012090400543042904DA4FF0B4
:100D8000402000EB013003E0081F044E06EB00306A
:100D9000C0F8205405E0000008E60F400040024083
:100DA00000BF02E0002400E00024204670BD0000E7
:100DB000F0B502460C460125302A71DA032C6FDAB1
:100DC0001046D61702EB5676C6F3C701D61702EBCC
:100DD0005676F610A2EBC606F3B224B1012C20D051
:100DE000022C5BD13BE0042904DA4FF0402000EBF9
:100DF000013003E0081F2C4E06EB0030D0F8FC63F6
:100E0000012098408643042904DA4FF0402000EB8B
:100E1000013003E0081F244F07EB0030C0F8FC63EB
:100E20003DE0042904DA4FF0402000EB013003E0FC
:100E3000081F1D4E06EB0030D0F8FC6301209840DF
:100E40000643042904DA4FF0402000EB013003E0B0
:100E5000081F154F07EB0030C0F8FC631FE00429A2
:100E600004DA4FF0402000EB013003E0081F0E4E83
:100E700006EB0030D0F8FC6301209840464004297E
:100E800004DA4FF0402000EB013003E0081F064F6A
:100E900007EB0030C0F8FC6301E001E000BF00E0B8
:100EA00000252846F0BD00000040024000BFFEE7DC
:100EB00010B50348006810B101480068804710BDB4
:100EC000280000201649096841F47001144A116095
:100ED0001449154A116715491166154911661549D6
:100EE0001167002000E0401CB0F57A7FFBD3104969
:100EF0000D4A11660F491167002000E0401CB0F553
:100F00007A7FFBD30C49084A1166116609491167BB
:100F1000002000E0401C42F210718842FAD3704772
:100F200088ED00E01028800700E00F40D13A8E07DE
:100F3000422D820100288081422DC20110B5034854
:100F4000006810B101480068804710BD40000020D3
:100F500010B50348006810B101480068804710BD13
:100F60004400002010B50348006810B10148006833
:100F7000804710BD4800002010B50348006810B13C
:100F800001480068804710BD4C00002010B50348A0
:100F9000006810B101480068804710BD5000002073
:100FA00010B50348006810B101480068804710BDC3
:100FB0005400002010B50348006810B101480068D3
:100FC000804710BD1000002000280DDB00BF00BFCF
:100FD00000F01F02012191404209920002F1E0223B
:100FE000C2F8001100BF00BF7047FFF75BFA01E0D5
:100FF000FFF77CFAFCE7000010B5494A12786ABB9B
:10100000484A1268484BB2FBF3F24A430023474C6C
:101010000CC4464A1368082803DA454A02EB00323A
:1010200004E0A0F10802434C04EB02329362424A0E
:101030001278052A73DD404A12780C2A6FDA3B4A8F
:101040005268082803DA3A4B03EB003304E0A0F1BE
:101050000803384C04EB0333DA6260E0304A12785C
:10106000012A2ED12F4A12684FF47A73B2FBF3F2A1
:101070004A4300232D4C0CC42C4A1368082803DA79
:101080002B4A02EB003204E0A0F10802294C04EBE9
:1010900002329362284A1278052A40DD264A1278E5
:1010A0000C2A3CDA214A5268082803DA204B03EB69
:1010B000003304E0A0F108031E4C04EB0333DA62B2
:1010C0002DE0174A1278022A29D1164A12684A439B
:1010D0000023164C0CC4154A1368082803DA144A76
:1010E00002EB003204E0A0F10802124C04EB0232E1
:1010F0009362114A1278052A11DD0F4A12780C2AE0
:101100000DDA0A4A5268082803DA094B03EB003368
:1011100004E0A0F10803074C04EB0333DA6210BDCE
:10112000300000206400002040420F003800002002
:101130000000034000C00440310000204FF0407028
:10114000E1EE100A70470000681100000000002066
:1011500068000000A8020000D01100006800002014
:1011600098020000C402000000000000000000001F
:10117000000000000000000000000000000000006F
:10118000000000000000000000000000000000005F
:101190000000000000000000030C00000000000040
:1011A000000000000000000000000000000000003F
:1011B000000000000000000000000000000000002F
:1011C00000000000000000000000000000093D00D9
:040000050000030DE7
:00000001FF
